:020000041000EA
:1000000000B5324B212058609868022188439860DF
:10001000D860186158612E4B002199600221596106
:100020000121F02299502B49196001219960352056
:1000300000F044F80222904214D00621196600F024
:1000400034F8196E01211966002018661A6600F04E
:100050002CF8196E196E196E052000F02FF8012189
:100060000842F9D1002199601B49196000215960AB
:100070001A491B48016001219960EB211966A021F2
:10008000196600F012F800219960164914480160C1
:100090000121996001BC002800D000471248134993
:1000A000086003C880F30888084703B5996A0420EC
:1000B0000142FBD001200142F8D103BD02B5186610
:1000C0001866FFF7F2FF186E186E02BD00000240BE
:1000D000000000180000070000035F00212200005C
:1000E000F4000018222000A00001001008ED00E03C
:1000F00000000000000000000000000074B24E7A12
:1001000000200420F7010010C3010010C5010010F9
:10011000C1010010C1010010C1010010C101001097
:10012000C1010010C1010010C1010010C701001081
:10013000C1010010C1010010C9010010CB01001065
:10014000CD010010CD010010CD010010CD01001037
:10015000CD010010CD010010CD010010CD01001027
:10016000CD010010CD010010CD010010CD01001017
:10017000CD010010CD010010CD010010CD01001007
:10018000CD010010CD010010CD010010CD010010F7
:10019000CD010010CD010010CD010010CD010010E7
:1001A000CD010010CD010010CD010010CD010010D7
:1001B000CD010010CD010010CD010010CD010010C7
:1001C00000BE00BE00BE00BE00BE00BEEFF3058054
:1001D000103800BEF2EB887188650010AC65001025
:1001E0003802001090A31AE71E481F49086006C88D
:1001F00081F3088810471D480068002801D019487D
:10020000F3E70DA40ECC002902D000F012F8F9E7B4
:100210001749184A002000E001C19142FCD116495B
:100220008847164988471649884700BEFDE701C937
:1002300001C29A42FBD37047AC650010C000002099
:10024000601000204C750010000004200000042005
:100250004C75001000100420001004200000000065
:10026000704700000000000008ED00E0000000D032
:1002700060100020801B0020CD4000101D050010E4
:10028000C5400010F8B5C0460448054B10B5834280
:1002900003D0044B002B00D0984710BD6010002005
:1002A000601000200000000006480749091A8B1062
:1002B000C90FC91810B5491003D0044B002B00D04A
:1002C000984710BD60100020601000200000000062
:1002D00010B5074C2378002B09D1FFF7D5FF054B4C
:1002E000002B02D0044800E000BF0123237010BDA2
:1002F000E013002000000000CC5E0010054B10B59C
:10030000002B03D00449054800E000BFFFF7CCFFF5
:1003100010BDC04600000000E4130020CC5E0010B9
:1003200070B582B000236A4600939380037804007E
:10033000002B74D0FA25AD0011E01A00413A192AB9
:1003400000D8C5E0202B00D1E1E02E2B00D1E1E068
:100350002C2B00D1CCE063780134002B5FD01A0045
:10036000613A192AE9D800225D3BDBB269460020D8
:100370000B706B46012105F073F901F0CBF90029F0
:1003800000D1AFE0FA220023920001F05DFD0600EB
:100390000CE0FA220023920001F056FD801B632836
:1003A0000FD801200021404204F0C0FB01F0B2F957
:1003B0000029EED1FA21890001F008FD801B632895
:1003C000EFD9002300220121002005F049F901F0B6
:1003D000A1F9002900D17FE0FA220023920001F068
:1003E00033FD06000CE0FA220023920001F02CFD00
:1003F000801BA842AFD201200021404204F096FBAE
:1004000001F088F90029EED1FA21890001F0DEFC23
:10041000801BA842EFD363780134002B9FD128239F
:100420006A460121137000206B46002205F018F97E
:1004300001F070F9002964D0FA220023920001F043
:1004400003FD04000CE0FA220023920001F0FCFC02
:10045000001B63280FD801200021404204F066FBF6
:1004600001F058F90029EED1FA21890001F0AEFC23
:10047000001B6328EFD9002300220121002005F092
:10048000EFF801F047F9002935D0FA220023920055
:1004900001F0DAFC0400FA25AD000CE0FA2200239A
:1004A000920001F0D1FC001BA8420FD201200021D4
:1004B000404204F03BFB01F02DF90029EED1FA2176
:1004C000890001F083FC001BA842EFD302B070BD8D
:1004D0003D3B0222DBB249E7FA21890001F076FCBC
:1004E00006008DE7FA21890001F070FC06005DE747
:1004F000002236233AE7FA21890001F067FC040064
:10050000C9E7FA21890001F061FC0400A8E7002294
:100510002C232BE70022372328E7C046F0B5DE4620
:1005200057464E464546E0B587B005F0C9FB7A4BC5
:1005300001A90B80002005F041FA784B002B01D077
:1005400000E000BF764B774C9846774B774E9A4643
:10055000774B02AF9B4601200021404204F0E6FAAF
:100560002368002B1AD001F0D5F8002900D1BBE098
:10057000FA220023920001F067FC434622681B68C0
:10058000C01A90420AD39B1842461360534618780B
:10059000012358405346187005F0AAFB3378002B0E
:1005A000D9D101F0B7F8002900D1A2E0FA22002346
:1005B000920001F049FC05000EE0FA2200239200AF
:1005C00001F042FCFA23401BDB00984211D20120CB
:1005D0000021404204F0AAFA01F09CF80029ECD175
:1005E000FA21890001F0F2FBFA23401BDB0098425C
:1005F000EDD3002005F016F80028ACD03378002B9E
:10060000A9D13B60BB801733052201213B7000203C
:100610003B0005F025F801F07DF8002975D0FA229D
:100620000023920001F010FC05000EE0FA220023E6
:10063000920001F009FCFA23401B5B00984211D2A2
:1006400001200021404204F071FA01F063F8002912
:10065000ECD1FA21890001F0B9FBFA23401B5B00C1
:100660009842EDD3002300220121002004F0F8FF7E
:1006700001F050F8002942D0FA220023920001F044
:10068000E3FB05000EE0FA220023920001F0DCFB00
:10069000FA23401BDB00984211D201200021404286
:1006A00004F044FA01F036F80029ECD1FA2189006F
:1006B00001F08CFBFA23401BDB009842EDD33B009A
:1006C0001C4A23CA23C3126804211A60584603F047
:1006D00015FF06AB3D00994601CDFFF721FEA94568
:1006E000FAD10123337036E7FA21890001F06EFB5D
:1006F00043E7FA21890001F069FB05006CE7FA2164
:10070000890001F063FB0500CCE7FA21890001F0C4
:100710005DFB050099E7C04601AAFFFF000000004D
:10072000681B0020880F00207D1B00207E1B0020FE
:10073000105F0010305F0010FA22024B92001A6026
:100740007047C046880F0020FA22014B1A6070479C
:10075000880F0020014B024A1A607047880F002062
:10076000C409000010B504F059F9431E9841034B29
:1007700040421840024BFA30186010BDEE020000F3
:10078000880F00207047C0460020704710B502A8AF
:100790000088022A00D010BD0129FCD10028FAD01F
:1007A0001B781A4206D00022064B01201A6005F081
:1007B0009FFAF0E7002005F09BFAFA22014B920025
:1007C0001A60E8E7880F002000487047945F001027
:1007D00000487047A85F001000487047705F001025
:1007E000F0B5DE4657464E464546E0B58DB000288A
:1007F0002CD0032836D000D983E0454B8000C55863
:10080000280005F0AFFA0400202800D977E000287E
:1008100000D178E03F4B98469A1C0023E95C0133F5
:10082000118002329C42F9D8C02301349B0064003D
:100830001C43A3B2039343464046039A1A800DB06B
:10084000F0BCBB46B246A946A046F0BD314B0222E1
:10085000981C98462E4B196802F04AF9C1239B0058
:100860000393E8E72C4B002B3FD004AD1021280068
:1008700005F014FA8446102801D910239C4600285C
:1008800041D063469A00C02302329B0013439BB2BF
:1008900003930F22002691461E4B019698469C1CFE
:1008A000009508AB18001D4F62CF62C04D463968F5
:1008B000029001600099194E087805405D5D8346FD
:1008C00065801D0007CE07C53D68029A15605A462F
:1008D0001111595C019A2180009901320131019274
:1008E000009104346245DDD3A5E70D4B0D4A04ADFC
:1008F000049205930C4B039308239C46C9E72024DC
:1009000085E700209BE7094B0393024B984692E74B
:100910008C0F0020541400209D5C0010405F0010DC
:1009200089ABCDEF012345672203000002030000DD
:1009300010B54024084A83009A181268C000544039
:10094000C0222240054CA44663441A60044B9C46D6
:100950006044416010BDC04604C0014004D0014065
:10096000004001400123D0228340402112069362BF
:100970009361094A83009A181268C0005140C0224E
:100980000A4006498C4663441A60054B9C46052381
:10099000604443607047C04604C0014004D0014039
:1009A000004001408023DB051868000F7047C046F7
:1009B0000FB400B5084883B003F016FD049B002B6C
:1009C00007D005A91800019103F062FB034803F06A
:1009D0000BFD012003F074FBD8600010E8600010EC
:1009E00070B5EFF3108C72B60D4D2B68002BFCD058
:1009F000BFF35F8F0724CB08C618C05C01230C40EF
:100A0000A3401C000440034207D103433370BFF3EB
:100A10005F8F2C608CF3108870BD1000FFF7C8FF4B
:100A20002C0100D0F8B54746CE46884680B5EFF396
:100A3000108C72B6214D2C68002CFCD0BFF35F8F58
:100A40009A422CD8D4080727055D061901241740BF
:100A5000BC402C421FD007210127894609E0D40859
:100A6000055D06194C4639001440A1400C0029428E
:100A700011D001329342F2D201204042BFF35F8F86
:100A800000220E4B1A608CF3108800280FDBC0BCCC
:100A9000B946B046F8BD2C4310003470EEE7BFF302
:100AA0005F8F00232B608CF3108801204042434667
:100AB000002BECD00898FFF77BFFC0462C0100D03C
:100AC000044A1078431CDBB2172B00D91023137093
:100AD0007047C0469C0F002000B5054B83B0010055
:100AE000009318221F230348FFF79CFF03B000BDAB
:100AF000EC600010041700200021044B044ABFF3EF
:100B00005F8F02C39342FAD17047C046000100D004
:100B1000800100D0054B064A1360064A13605360FB
:100B20009360D360136153619361704780808080CC
:100B300000E400E004E400E01F2318401E3B834073
:100B4000002905D0C021044A490053501360704762
:100B5000802201498B50FAE700E100E070B50D00FA
:100B6000EFF3108672B60F4A1368002BFCD0BFF368
:100B70005F8F0D4B10309B6884001B590B4A9342CA
:100B800003D09D4201D001F01BF8074B9B681D511B
:100B9000BFF35F8FBFF35F8F0022024B1A6086F3B3
:100BA000108870BD240100D000ED00E0CD010010E0
:100BB000F0B557464E46DE464546E0B585B00600E0
:100BC00002911700EFF3108B72B6674A1368002B7F
:100BD000FCD0BFF35F8F0025644B5D579A46002D14
:100BE00000DAA4E06B00624C03935B199B0098460B
:100BF000A146C1444B4652469B79103613705D4B5B
:100C0000B2009B68019299580B1B2F2B34D95A4B79
:100C1000994200D0A4E0039B584A9C46584B654437
:100C2000AD006353434602336519E418554B012167
:100C3000043B1B1B1B055B0D13436B80524BEF7179
:100C4000AB80FF23AB71029BAB604B460B4319009B
:100C5000484B019A9B689950BFF35F8FBFF35F8F3A
:100C60000022414B1A608BF3108805B0F0BCBB46E4
:100C7000B246A946A046F0BD01200A008243D379BE
:100C8000BB422FD845464E46130040491B1B5B41D3
:100C90005943090D3A4B63533A4B02356519043BEE
:100CA0005B1B1B05354D5B0D2B4373800426B4463F
:100CB000E0444444131F1B1B4C46A17102991B05C1
:100CC000A16049465B0D2B43A380314BE771014383
:100CD0001360BDE75800C01880002018C679BE42D6
:100CE0002BD902000623D356002BF3DA101D8246BF
:100CF0002848804604267642B446E14450464E4693
:100D0000361A3005400D824656461C4895710643FA
:100D10009680039A944665441D4AAD00641922608A
:100D20004246A371029BA280E771A36090E700F0A6
:100D300047FF002553465D5754E7101D82469088B3
:100D40004005001584464046D444664604302018C9
:100D5000301AE0260005400D360230438046C9E7D0
:100D600000F02EFF57E7C046240100D07C1B002076
:100D7000A00F002000ED00E0CD01001000E0FFFF1B
:100D800000A1FFFFD00F002001BDFFFFAAAA0000B5
:100D90000148804701BD0000F0B5DE4657464E468B
:100DA0004546E0B50C0083B0EFF3108972B65F4A98
:100DB0001368002BFCD0BFF35F8F5D4B9A68030074
:100DC00010339F00D5595B4A904695423DD0A542CD
:100DD0004ED0594EAA1B2F2A37D8584A934612682C
:100DE0009446012261469246824011401F221040E3
:100DF0005246824092460191802251465846815087
:100E0000BFF35F8FEFF305829346002A32D10123AF
:100E10002A009A439068844208D17CE04B005B181A
:100E20009B00F318986884422ED01A000621515670
:100E30000029F3DA84424DD0019B002B1FD0C02241
:100E400051463E4B520099501960394B9B68DD5119
:100E5000BFF35F8FBFF35F8F0022344B1A6089F3BB
:100E6000108803B0F0BCBB46B246A946A046F0BD10
:100E70001500EAE79342CAD000F0A2FEC7E780233C
:100E800051462E4AD150E0E706215956002922DB6F
:100E90004A005018800034188046A0689860E079B5
:100EA000D871062020569871002825DBA488F01AF6
:100EB0006405241544440019E0240005400D240273
:100EC0002043988052181E4B9200B6181A78197059
:100ED000B271B1E71300594600290FD1FF3191716A
:100EE0001849918016490A789A71174A9B1B5B41F1
:100EF0005A43120D0A709FE71448E2E7144A154955
:100F0000D21A083A5002400D014399801249520802
:100F10000A43DA8090E70621515613000029B7DA18
:100F20005A46002AEAD14546DCE7C046240100D0F3
:100F300000ED00E0CD010010A00F002000E100E076
:100F40007C1B002001BDFFFFAAAA000001BD00001C
:100F5000DA0F002000F0FFFF00F8FFFF70B501245A
:100F60000443EFF30581EFF3108C72B6214A136846
:100F7000002BFCD0BFF35F8F1F4B05001F4AED1AFB
:100F80006D416A43120D1E4D8900AE6852B276580B
:100F9000A6421CD00621595691421CD01221595606
:100FA000914222D01E215956914220D02A215956D1
:100FB0000324914210D0134B19781A708171BFF33A
:100FC0005F8F00220B4B1A608CF3108870BDAB68EA
:100FD0000D4C5C50EFE700246100091989005B1893
:100FE000FF21997109499980E5E70124F4E702247A
:100FF000F2E7C046240100D0A00F0020AAAA0000FA
:1010000000ED00E07C1B0020CD01001001BDFFFFC2
:10101000024B9C46614489000160704740000034E7
:10102000F8B5134D134E2C00FF27B5421ED223688E
:10103000002B0FD0FFF744FD01002800FFF7E8FF69
:10104000A780BFF35F8F0834B4420FD22368250016
:10105000002BEFD1FFF734FD01002800FFF7D8FF88
:101060002771BFF35F8F0834B442EFD3F8BDC04699
:10107000581000206010002010B50400FFF720FD7C
:1010800001002000FFF7C4FFFF232371BFF35F8F30
:1010900010BDC04610B504000120FFF71DFD044B34
:1010A0009C46604480002060BFF35F8F10BDC04647
:1010B000400000340A4B1968EFF3108072B60A68DA
:1010C000002AFCD0BFF35F8F1B68BFF35F8F002245
:1010D0001A6080F3108840BF002000217047C0468E
:1010E000641B0020F0B5DE4657464E464546E0B547
:1010F00085B0EFF30582032313409A001100039299
:10110000B64A5258904601229A409146B44B1A6012
:101110004B46B4484363434608229B5E9A46002BE5
:101120003DDA43469B881BB2002B00DBA1E043461F
:101130009B79002B00D0F3E0434608241C5F002C71
:1011400023DB42465269630094461B19DB0063446B
:101150009C68DD68631C00D10FE1A24803998446B6
:101160006144826A0B69A61A9B1A9E4215D34A46AD
:10117000036A1A4211D09B4800F0C4FA241A8D4128
:10118000002D02DCC4D1002CC2D040BF05B0F0BCA1
:10119000BB46B246A946A046F0BD0C61EBE742460D
:1011A00052695B0093465344DB009B445B469E6858
:1011B000DF6800F0A7FA801BB9410029B1DB002FDE
:1011C00000DAE5E05B46884A1B69934200D1D8E02B
:1011D00041465A460820085E5288000410435A4689
:1011E0005169984704000D0023002B4300D1CFE044
:1011F000002D00DBE8E0361BAF4134003D005B46CC
:101200009C60DD600021595E002900DA89E74346D1
:101210005B6922009C462B0048004018C0006044D7
:101220008668C768921BBB41002B00DA79E743460A
:10123000664602000094019519810CE07B00DB19E1
:10124000DB00F318009801999C68DD68001BA94138
:10125000002904DB1A000023D75E002FEEDA5B467C
:101260001F805346138043469B881BB2002B00DA35
:101270005DE743461A69EFF3108172B61368002BDD
:10128000FCD0BFF35F8F43469B8842461BB29A4611
:1012900001235B4293801369BFF35F8F00221A60C2
:1012A00081F310885346002B00DA40E743465B6920
:1012B0009C46082343449B4653465F00434657449D
:1012C000FF0008229A5E67445E46BC68FD68002AFB
:1012D00019DB3B000094019567469C4604E01E0024
:1012E0000023F25E002A0BDB0098019953009B1843
:1012F000DB00FB189C68DD68001BA9410029EEDAC1
:101300006346BC461F005346338000217B5E3A8013
:101310009A46002BD0DA43469B79002B00D10BE78D
:10132000002342469371434646460821595E0836DB
:101330004B1C00D129E747468C46556902E0060060
:101340004B1C17D04B005B18DB00E8180A00E95E65
:1013500043881BB2002BF2DA01235B42DC17836067
:10136000C4606245ECD031803B89944603803A8169
:101370004B1CE7D1B8466446E1E66B1C00D0ECE6B6
:10138000F9E65B465C69200023699847002821D173
:101390005B4642461B8813811269EFF3108372B6D5
:1013A00011680029FCD0BFF35F8F4246594652882E
:1013B0000A804246514651801269BFF35F8F002177
:1013C000116083F31088ACE6064800F09BF92418FE
:1013D0004D4114E76568246806E7C046481B0020B5
:1013E0003C70054000400540E510001070B52E4CE3
:1013F0002569002D04D00A212C48FFF709FE70BD95
:101400002B4E0321300000F073F9E660FFF758FB24
:10141000284B03229C46D02322701B061B68012107
:101420006370254B6044A3600F238000206102207D
:10143000638063694942A18019800231198647316E
:101440001D83585218315A5275325C3999521832EC
:1014500001319952183201319952183201319952A1
:10146000083518329D520231183299521832013122
:101470009952183201319952183201319952183269
:10148000013199521832013199520C4B0C49DC60F0
:1014900001303562FFF762FB01210320FFF74CFBAF
:1014A000084B1D60A7E7C046E80F0020641B002022
:1014B0000040054040000034FFFF1000481B0020A2
:1014C000E51000103860054070B5C646010000B553
:1014D0000469EFF3108C72B620680028FCD0BFF3CB
:1014E0005F8F02200D5E48696C0080466419E4003D
:1014F0004444002D01DB208848800869BFF35F8FDA
:10150000002606608CF31088002D30DBE3606388D2
:101510000598013320615B0406985B0CA260606152
:101520001A1C002B21D090B22B04628018430A6948
:10153000EFF3108672B61368002BFCD0BFF35F8FF9
:101540008B8823808D800B69BFF35F8F00221A6028
:1015500086F310880B7801329A40CB6805498C4697
:1015600063441A6040BCB04670BD0122DBE7012035
:101570004042F7E73C20000010B543890A1493422B
:1015800033DD53009B184269DB00944604696344D1
:10159000EFF3108C72B62268002AFCD0BFF35F8F85
:1015A0005A88090494B2090C8A4208D00369BFF32F
:1015B0005F8F00221A608CF31088002010BD8022FB
:1015C000120214435C80012302698371BFF35F8FB1
:1015D000002111608CF31088054902788C469340F5
:1015E000C268012062441360E8E70020E6E7C046D5
:1015F0003C200000F0B5CE46474680B504000D0003
:1016000083B0EFF30587002F0DD0364A0020536AD0
:101610008B4203D3926A0130A24250D303B0C0BCC4
:10162000B946B046F0BD304B9846DB689946434614
:1016300048461E7800F066F80B0049460200043662
:10164000B600715820008E1A2900801A99418F42E5
:1016500011DC0ED020BF234A0020536AAB42DDD3F9
:10166000926A0130A242D9D2E81A421E9041C0B219
:10167000D4E78642EED900F04DF822002B00121A72
:101680008B41002B20DB00230193184B2200009399
:1016900040462B00FFF718FF011E15DD114B2E00F1
:1016A0005A6A95421CD89B6AA34217D34046FFF75B
:1016B00063FF0C4A0020536A9E42AFD8D0E7581A05
:1016C000421E9041C0B2A9E7064A0020536AAB42CD
:1016D000A4D3926A0120A242A0D2C5E79542E5D1E7
:1016E00020BFE3E700400540E80F0020B5100010E0
:1016F00010B5024A0248FFF773F910BD08610010E7
:10170000081700200300416A0A00986A596A8A4251
:10171000FAD17047034B596A0A00986A596A914294
:10172000FAD170470040054070B504000D00124A20
:10173000536A1900966A536A8B42FAD13000190035
:1017400024184D41AB4211D80ED02B000A494A6AE9
:101750009A42FCD307D1084A02E0516A994202D169
:10176000916AA142F9D370BDA642EED901230124AA
:101770006442E5175B42E9E700400540F8B5040024
:1017800006200D0000F076F9002842D0364B37498C
:10179000E21853425A418023DB039C469205344BA6
:1017A00062441A60334B1A6010000B689843FBD1F7
:1017B0002D4B8021E3185A4253412F4A5B004900C8
:1017C0009952062000F056F92900C00000F0FEFAF8
:1017D0000130C3091ED1402701226262A362266B39
:1017E000F30722D4E36A254B0620E51800232B607B
:1017F000266300F03FF93900800000F0E7FA70221C
:10180000E36A5A407E2313402B601D4B236303235E
:10181000A364F8BD1B4A93421ED900231A4A1B4FEA
:101820006262A362266BF307DCD5194B144AE318F6
:101830001A60656AA26A0620AD01AD1800F01AF9B7
:10184000144900F0C3FAAD020100280000F0BEFA0E
:101850000021FFF769FFC5E74006800E9F011A00CF
:101860003F180300B9E7C0460080FCBF08C0004035
:1018700000E0004000F000406C1B00202C10000035
:1018800001030000FEFF0000FFFF0000C0FF3F005B
:10189000303000004E0E0000F8B5DE464E4657468A
:1018A0004546E0B58B4605000A991800160000F081
:1018B0008DFA0A9B6C001F02324B64199C46A400EF
:1018C0006444636881469F4200D967602B1FDBB286
:1018D0009846012B30D9C02380229B01E3181201C6
:1018E0001A60294BAD0059599A4600291BD122682C
:1018F00076017240E0268023164042465B01E318E1
:101900001E60012A30D9802380229B01E318120136
:101910001A6053464A4667605A51F0BCBB46B2460D
:10192000A946A046F8BD586900F050FA431C58007B
:10193000C0180338FDD2DAE75B46012BCBD1C023B8
:1019400003229B01E3181A60023AA3681A42FCD0F2
:10195000E0232268760156401E4080230A4A5B013C
:101960009246E3181E60AD005A462168514003229A
:101970000A401A6001225B469A40A3681A42FCD0D2
:10198000C1E7C046008000400C170020F0B5464675
:101990004F46D646C0B51F00344B44009C46241821
:1019A000A4006444636888461600FF2B02D8802395
:1019B0005B006360031FDBB29A46012B30D9C02362
:1019C00080229B01E31812011A60294B85005959A6
:1019D000994600291BD1226876017240E0268023B7
:1019E000164052465B01E3181E60012A30D980235D
:1019F00080229B01E31812011A6080235B00636060
:101A00004B465F51E0BCBA46B146A846F0BD5869A6
:101A100000F0DCF9431C5800C0180338FDD2DAE7A7
:101A20004346012BCBD1C02303229B01E3181A604C
:101A3000023AA3681A42FCD0E0232268760156409D
:101A40001E4080230A4A5B019146E3181E60850010
:101A500042462168514003220A401A60012342464F
:101A60009340A2681342FCD0C1E7C046008000400A
:101A70000C170020014B8000C05870470C17002045
:101A8000F8B5040020481D0017000E0000F09EF974
:101A90000100380000F09AF9069B29041B03194342
:101AA0002368002B1EDB194B194DE21853425A4193
:101AB00080235B019C461203164B62441A60164B4E
:101AC0001A6017002B689F43FBD1144B2660E21865
:101AD0002123A06013602368002BFCDA0823E16057
:101AE0001360F8BD3F2322681340B342DBD1A368E3
:101AF0001B051B0D8342D6D1EE22E368D2021340B0
:101B00008B42D0D1EDE7C046001BB7000040FDBFBF
:101B100008C0004000E0004000F000400430000039
:101B20008023024A9B000B43D3627047008005402C
:101B3000142310B50100188804331B88984710BD82
:101B4000162310B50100188802331B88984710BD72
:101B5000F8B54746CE4680B50F1E19D014239946D6
:101B6000043304000025012698464B461888434656
:101B700021681B88984701C4431E984101354042A3
:101B80000640AF42F1D13000C0BCB946B046F8BD06
:101B90000126F8E7AA23064A1B0113608D235B0088
:101BA000D3600449044B19605368002BFCDA70477A
:101BB0000040024000B0FA00006002407047C0469A
:101BC00010B50148FEF7F4FE2C61001070B5074D0A
:101BD000074EB54209D20024013E761BB60808CD57
:101BE000984723000134B342F9D170BD885E0010DC
:101BF000C45E0010054B064A06491A60064A074BA8
:101C00001A6010000B689843FBD1704700E0004059
:101C1000BFCDFBFE08C00040FE7F3C0000F000404E
:101C2000044BDB6C002B03D18022034BD2021A60E1
:101C30007047C046000011504C201150044A054B1B
:101C40001A60054A1368DB018033FBD17047C04638
:101C5000FFFFFF0100F0004008C000404022034B9E
:101C60009A675A671A67DA667047C04600F0014003
:101C700010B5FEF741FF10BD70B5044D044C2800AF
:101C8000C022A16800F034FFA56070BD00000020F4
:101C900000ED00E0002310B5294C82B0A367FFF7E8
:101CA00079FF0122274B1A60636C012BFCD10322C0
:101CB000254B1A60224A936B012BFCD10133009310
:101CC0000121224A22480433FFF7DAFE05230121CD
:101CD0000093204A2048FFF7D3FE0022022104206F
:101CE0001E4BFFF753FE0022012105201C4BFFF77E
:101CF0004DFE0022002107201A4BFFF747FE00226D
:101D000000210820174BFFF741FE8023DB000093E2
:101D1000002200210920134BFFF7BEFD0022104BCB
:101D200000210620FFF732FE0420FFF7A3FE0E4934
:101D300000F04CF801000020FFF7F2FE02B010BDE9
:101D4000008000403CB0004030B00040002F685997
:101D500000800240008C864700C00240001BB70094
:101D600040597307006CDC0240420F000148042117
:101D7000014B184700100020511B0010124A936FAE
:101D80009B0815D29066D166002905D0FFE7FFE7D2
:101D9000FFE7516F106F704704B580210906C21725
:101DA0005140002800D0C84304F02EF8002104BDA3
:101DB000F0B5146E556E576F166FFFF7E3FF14669C
:101DC000556657671667F0BD000000D0114A936F43
:101DD0009B0813D210665166002905D0FFE7FFE784
:101DE000FFE7516F106F704704B5002801D0002045
:101DF000C04304F009F8002104BDC046F0B5146EDC
:101E0000556E576F166FFFF7E5FF146655665767F7
:101E10001667F0BD000000D094464A4A926F9208BF
:101E2000624601D228E0C046F0B5464E346E756E6B
:101E3000776F366F00F020F89446424A1466556674
:101E4000576716676246F0BD94463E4A926F920805
:101E5000624601D254E0C046F0B53A4E346E756E1B
:101E6000776F366F00F04CF89446364A1466556624
:101E7000576716676246F0BD002B24DB11D000299E
:101E80003EDA00B5C943404200D1013100F038F8D4
:101E9000C943404200D10131DB43524200D10133FA
:101EA00000BD002AEBD1002801D1002905D0002077
:101EB000C90FC90701D1C043410800B503F094FF21
:101EC0000022002300BD00B500290ADBDB4352429B
:101ED00000D1013300F014F8C943404200D1013170
:101EE00000BDC943404200D10131DB43524200D121
:101EF000013300F005F8DB43524200D1013300BD4D
:101F0000002923D1002B18D1002A0CD0BC460D4F3C
:101F100038667A6600210023FFE7FFE7FFE77A6F64
:101F2000386F67467047002801D00748010000B5A8
:101F300003F05AFF0022002300BD02000B00002026
:101F400000217047000000D0FFFFFFFF002B00D0F2
:101F5000BFE0130C28D1002AE7D080B4114F3966B6
:101F60007A66FFE7FFE730B4040C7B6F396F1B0420
:101F700023433B667A66FFE7FFE7FFE7C04684B28C
:101F80007B6F3D6F1B0423433B667A66FFE7FFE7E9
:101F9000C04600232C042D0C7A6F386F001969415C
:101FA000B0BC7047000000D0F0B594460025140E78
:101FB00001D112020835140F01D112010435940F1A
:101FC00001D192000235D40F01D152000135D40B5A
:101FD0000134254F7C66254C3C660E0C93B2FFE71E
:101FE000FFE7FFE73C6F6643360C7703BE4673435B
:101FF000DF0B5B04C01AB941130C7343DB18C91A19
:10200000CE086643360CB64493B273431F0F1B01D0
:10201000C01AB941130C73431F0B1B05C01AB941F9
:10202000860D8F023E436643360C092D24DB520A8F
:102030007243801A7703460A6643360C16235B1BED
:10204000DE40DF40BF1964466643821B704604359C
:1020500006330100D940A840C01900D30131A24283
:1020600006D20023F0BD0000000000D0FFFFFFFFFC
:10207000121B0130F3D3F1E709277F1BFE406446B2
:10208000A2B27243801A00D20139220C7243130C9F
:102090001204821A99410B0070460435133701006F
:1020A000F940A840801900D30131002B02D1A2428F
:1020B0000AD2F0BD013000D30131121BFAD2013B2C
:1020C000F8D1A24200D2F0BD013000D30131121B81
:1020D000F7E7F0B51C0C00D080E00CB400251C0A1A
:1020E00004D11B02160E3343120208351C0B04D117
:1020F0001B01160F3343120104359C0B04D19B00C6
:10210000960F334392000235DC0B02D192185B41EB
:1021100001351C00971864410134464F7C66464CDB
:102120003C660E0CFFE7FFE7FFE7C0463C6F6643E7
:10213000360C7703BE4697B27743C01B00D20139F5
:10214000C01B00D201399FB27743C91BC91B170CB2
:1021500077437E04FF0B801BB941CE086643360CE3
:102160000C2D33DBB644120B1F053A431B0B97B201
:102170007743C01B00D201399FB27743C91B170CAC
:1021800077433E043F0C801BB941860D8F023E43CE
:10219000664329277F1BFE400C3D7746AF40BF19A1
:1021A00030BCA2B2ABB272437343801A9941220C85
:1021B0007243130C1204801A994102000B0001377C
:1021C000001BA941F9D2781E0021F0BD0C277F1B0E
:1021D000FE4077467F0BAF40FF19E0E700245D1C0F
:1021E00007D0144F7D663966FFE7FFE7FFE7FFE79B
:1021F0003C6F95B29EB265436643401BB141150CDE
:102200001E0C6543664336042F0C3E432D04401BD1
:10221000B141994204D202000B0020000021F0BD20
:1022200001D19042F7D3801A994101349942F2D3F7
:10223000F6E70000000000D0FFFFFFFF48404140EC
:10224000484018B41B4B5B68FC46019308BD04DF93
:10225000E324001018B4174B1B68FC46019308BD1B
:1022600000DFED2400109446134A926F920809D2C1
:10227000624618B40F4BDB68FC46019308BD0CDFC7
:10228000A52700100C4AF0B5146E556E576F166FE7
:102290006246FFF7EEFF084A1466556657671667F1
:1022A000F0BD18B4034B9B68FC46019308BD08DFE2
:1022B00049260010E0110020000000D0FFB550407A
:1022C0004240504059404B40594000E0FFB5154F47
:1022D0004C00640D03D0BC4204D10C0314D8002080
:1022E000090D09055C00640D03D0BC4204D11C0338
:1022F0000AD800221B0D1B0501264B4009D44B4078
:1023000003D58B4200D18242FFBD9942FCD190425D
:10231000FFBD0B43DB1803431343F5D0C9434918F2
:10232000FFBD0000FF07000000B5FFF7CFFF8041B1
:1023300000BDC04600B5FFF7C9FF01D9002000BDB0
:10234000012000BD00B5FFF7B9FF01D9002000BD95
:10235000012000BD00B5FFF7B1FF804100BD0120A5
:1023600040054A00121804D85A00121801D800205B
:1023700070470120704700000021002805D17047F8
:10238000C1174840401AFAD0C90713B5064B1B685D
:1023900098470CBC441CA2401005120B0349091BB2
:1023A00009051943114310BD601B00201F040000E4
:1023B00010B54C00620D8023D218DB00D21A5B05E9
:1023C0007E2A10DD9E3A13DACC1709034908194317
:1023D0005242D140640001341532202A05DAD0403F
:1023E0000843604310BD002010BD0846604310BD87
:1023F000C80FC018013810BD18B4044B5B6AFC4606
:10240000019308BD24DF552900100000E0110020D1
:10241000132370B51D78012D19D014DD1E48FFF768
:102420008FFB06001D48FFF78BFB1D4C80223100FF
:10243000200000F05DFB022D06D01A48FFF778FB64
:10244000194B186070BD164C184BA364F5E7174B79
:10245000134C23606360A360E36023616361A36145
:10246000E36123626362A362E36223636363A36342
:10247000E36323646364A364E36423656365A36522
:10248000E36523666366A366E36623676367A36702
:10249000E367A364D1E7C0465344000053460000FD
:1024A000E01100204C330000601B0020B12400101C
:1024B00007B5604601880A0A0230DF2AFAD1C9B29C
:1024C000820804D3028840880004104300E00068BA
:1024D000014A5050039007BDE01100200FB403BC27
:1024E0000CBCF0B50124E407634000E0F0B50C0D2E
:1024F000CF0F661E3605891B640503D3C9434042CE
:1025000000D30131640D03D0661CF60A07D0E41B2A
:1025100000207F00791C89078912803C24031D0D4F
:10252000DF0F6E1E36059B1B6D0503D3DB43524246
:1025300000D301336D0D03D06E1CF60A07D0ED1BDE
:1025400000227F007B1C9B079B12803D2D032F1BCD
:10255000661B58D4A446202E46DA20371400BC400F
:102560001D00BD40F24033412A4380185941CB0F32
:1025700005D0C943C04300226442504151416246E4
:102580004D0D28D10D0D07D100281FD02419404131
:102590004941013A0D0DF9D0640006D3013000D352
:1025A0000131002C01D140084000013A0BD4941CA9
:1025B000E40A04D112051144DB071944F0BDD90720
:1025C000204B194300E0D9070020F0BD0029DDD1E0
:1025D000002CDBD1F0BD0132C6074008CD072843EF
:1025E0004908002EE1D0D9E73C2E29DA203E4037B9
:1025F0001400BC4000D00124F24014431A00BB4038
:102600001C43D317ACE7AC46202F08DA2036040071
:10261000B4400D00B540F84039412843A5E73C2FB0
:102620000CDA203F40360400B44000D00124F840CA
:1026300004430800B1400C43C117EAE71000190039
:10264000002494E70000F07FF0B50C0D661E3605FF
:10265000891BE60A6405640D02D0651CED0A04D0EE
:10266000002001210905803C2403A4461C0D671E9F
:102670003F05DB1BE70A6405640D02D0651CED0A0B
:1026800004D0002201231B05803C240377406444CE
:1026900097B484B296B27443070C7E43150C6F4313
:1026A00080B26843361802D3012000043F1830047A
:1026B000350C00197D41844688B29AB250430C0C07
:1026C00062431F0C7C438EB27E43921902D30126D3
:1026D0003604A4191604170C3618674101BC81B2E0
:1026E0009AB25143040C62431B0C5C4380B25843C2
:1026F000121802D30120000424181004130C4018EF
:1027000063412D185E410020474106BC88B293B258
:1027100058430C0C6343120C544389B251435B1869
:1027200002D301210904641819041A0C0918624122
:102730006D1856410020474118BCF902720D114333
:10274000F0026A0D1043ED020A0D03D16D194041EC
:102750004941013B124E9B1B7600B3420ED26D00E5
:1027600007D30130002671416646354301D1400848
:1027700040001B05C918E4072144F0BD0BDA013302
:1027800006D1013004D101314F0D01D04908F2E7E3
:10279000E1070020F0BD013631050020EBE7000025
:1027A000FF030000F0B51C0D671E3F05DB1BE70AA9
:1027B0006405640D02D0661CF60A04D000220123D1
:1027C0001B05803C2403D0252D060026F6432E66EB
:1027D0001E096E66CE0FF619B44649004F0D02D0A1
:1027E0007E1CF60A03D000200021403F3F033E1B21
:1027F000B600B444013F7F05C91B49082E6F01365E
:1028000076089C02950D25437543ED137543AD1372
:1028100001356D10F603761B0CB4CC02450D2C432C
:10282000A2B2B3B25A43270C7B43350C6F43A4B218
:102830006C431B1902D3012424043F191C041D0CF2
:10284000A4187D4124196D41009A91B2ACB2614344
:10285000170C7C432B0C5F4392B25A43A41802D34B
:1028600001221204BF182204230C52187B41019C40
:102870006C431B19520ED9010A434401A01A81B2BC
:10288000B2B2514303145A43360C734387B27743B1
:10289000D617D21900277E4136049B191704160C4F
:1028A0007F185E417316ED18F301002680337541E1
:1028B000A90F06D16400690AE8055B0A184309D22A
:1028C0002FE00422944480337541A90AA8059B0A8D
:1028D000184326D3404149412404009A019B0D002E
:1028E0005543641B4343E41A95B286B27543170CF3
:1028F0007E43030C5F4392B25A43B61802D30122BF
:102900001204BF183204330C52197B4152429C41CD
:10291000002C02D40022013051414008CA07104364
:10292000490802B06246D7079210084BD218084BEC
:102930009A4203D212058918C919F0BD0020002A55
:1029400001DC3900F0BD01331905F5E7FD03000096
:10295000FE070000002200B5203200F004F8080055
:1029600000BD000000220B150AD410B5944600F0FB
:1029700031F81414013400DA0021CB17144C20472D
:102980000020002170476244343A0CD40C2A07DA44
:1029900004009140904052422032D440214310BD67
:1029A000D843D94310BD203207D40C46944052423C
:1029B00020321141D040204310BD0800C9172032F9
:1029C00003D452422032104110BD1800190010BD2E
:1029D000872900100A0DCC0F531E1B05C91A52057A
:1029E00003D3C943404200D30131520D03D0531CDD
:1029F000DB0A07D0121B00206400611C89078912C2
:102A0000803A1203014BD21A70470000FF03000006
:102A100051434343C9188C46110C83B24B4310B445
:102A2000040C614392B280B2504362431C041B0CFD
:102A3000001910BC59411304120CC01851416144D3
:102A400070470000132310B512481C78FFF778F880
:102A50000100012C0AD003DD80220F4800F048F865
:102A60000E48FFF765F80E4B186010BD0A4C542253
:102A7000200000F03DF80B4B6365A365E36523661A
:102A80006366A366E36623676367A367E3672362FE
:102A9000E361E5E753460000E01200204C330000FC
:102AA000601B0020A92A001007B5604601880A0AA9
:102AB0000230DF2AFAD1C9B2820804D302884088E2
:102AC0000004104300E00068014A5050039007BD25
:102AD000E012002001480421014B1847101000208B
:102AE000511B0010014B1B681847000010100020FC
:102AF000014B5B6818470000101000207047C0466B
:102B0000F8B557464E464546DE46E0B599460A9B1F
:102B100007009A460D9B8846934615000B9E9B071F
:102B200010D10C9B9E420DD29D1B14000E005D44E3
:102B300022004B46013431002020B847A542F7D18E
:102B4000B0460B9E002E27D0444675195346AA1B4B
:102B5000013E985D21004B46B847002EF6D1230078
:102B60002C0098460D9B9B070FD55B46E51A0C9BE6
:102B7000AB420AD94646984622004B4631002020F7
:102B80000135B8470134A845F6D82000F0BCBB4653
:102B9000B246A946A046F8BD2C00E3E7F0B54F4683
:102BA0004646D646C0B584B098460EAB1B78129FF9
:102BB000994694460D9C109B119EBA0725D4002E71
:102BC0004BD19C4200D3BFE001223A4092461F2CD9
:102BD00000D9B8E00C9A551E302201E0202C03D019
:102BE00001342A55A342F9D85246002A0DD0A642F4
:102BF0000BD9202C44D00C9A551E302201E0202CF9
:102C00003ED001342A55B442F9D1FA064DD57A05A1
:102C10003FD4002C39D10F9B102B00D179E00F9BB2
:102C2000022B00D18AE030230C9A012413704B460A
:102C3000002B3FD02D230C9A135501340C9B624678
:102C400000930397434602960194FFF759FF04B09F
:102C5000E0BCBA46B146A846F0BD012215003D4091
:102C6000AA463A422FD04A46002A02D10C323A42B2
:102C700000D0013E9C42BAD21F2CABD9202E27D9BE
:102C80002024FA06DAD57A0503D4A3422DD0A64231
:102C90002BD00F9B102B32D0022B20D0202CCDD04C
:102CA00030220C9B1B191A700134202CC6D04B46C5
:102CB000002BBFD17B070DD43B07BFD520230C9A37
:102CC00013550134BAE79C429FD21F2C00D881E7EC
:102CD00020249AE72B230C9A13550134AEE7202CBD
:102CE000ACD00C9B1B1901343AE0631E012C92D02E
:102CF0000F9A102A2AD0022A2FD01C00D0E7BB0638
:102D00000ED4202C9AD00C9B1A19013478231370FE
:102D1000C4E7BB060DD478230C9A01241370BFE7D7
:102D2000202C00D18AE758220C9B1B191A70013401
:102D3000B4E758230C9A01241370B1E70C9A60335E
:102D400001241370ACE7202400265EE7023CBA069B
:102D5000E9D40C9A12191C00D8E70C9A92465344F5
:102D600062221A709AE7C04610B5002800D110BD43
:102D700001F0EEFAFBE7C0460B0010B5002802D0C8
:102D800049681B68984710BDF0B5DE4657464E4669
:102D90004546E0B59BB09B46249B89469846259BBB
:102DA0000B900C924046424619009A46FFF7D7FA1C
:102DB000002800D0D8E0012240465146774B5242CD
:102DC000FFF7C8FA002800D0CEE001224046514665
:102DD000734B5242FFF7A8FA002800D0C4E000224B
:102DE000002340465146FFF79FFA002800D0B9E182
:102DF000424653460A9209938023289ADB001A40E0
:102E00000E92289A1A4201D1062326930A9A099B08
:102E10001600134300D0C7E0289B002500261B05A1
:102E200000D49BE100230D93269A0D9B9A4200DC6F
:102E30009FE1D01A431E26938023289ADB001A4371
:102E40000023002728920D93279B0024BB4200D922
:102E5000DC1B0223289A1A400E92289A134203D0B0
:102E60007B427B415B421C400D9B002B07D00A98A4
:102E700009992A003300FFF7F6F90A900991002218
:102E8000002340465146FFF74FFA002805D0802026
:102E900000068446099961440991289A414B0B9D8B
:102EA00013400493269B0A9A0293099B0394009271
:102EB000019349465B4628000C9A00F08BF9040008
:102EC000002F62D0289B220098061F23C01798432A
:102ED000631C984649465B466530A8470D9B002514
:102EE000DA179C18DB0F9A465440013F01E0202D71
:102EF00013D00AAA94461F23200063440A210135F7
:102F00005E19FEF763FF3031317020000A21FEF7B1
:102F10005DFF26000400092EE9D80523069300234F
:102F200004930A330393534605970B9F029312AB06
:102F3000009342465B46494638000195FFF72EFE56
:102F40000E9B0400002B20D00C9BC51A279BAB4284
:102F50001BD91E0022005B46494620200135B84798
:102F60000134AE42F6D810E0289B42460493279BDA
:102F700049460393269B0B98029353460092019374
:102F80005B460C9A00F026F9040020001BB0F0BC50
:102F9000BB46B246A946A046F0BDC046FFFFEF7F44
:102FA000FFFFEFFFFFF7FFFF734B099F9C46780081
:102FB000400D6044FFF7E4F9704A714BFFF771F977
:102FC000704A714BFFF746F93B03704A1B0B1A43DB
:102FD00004000D00300011006D4B0022FFF731F9A5
:102FE0006C4A6D4BFFF75DF902000B0020002900D1
:102FF000FFF730F9FFF7DCF90D90FFF7C1F9674AE9
:10300000674B04000D00FFF74CF90022654BFFF7FA
:1030100021F9FFF7CDF9644A0600644B200029002E
:10302000FFF73FF9040030000D000F96FFF7A8F9F5
:103030005F4A604BFFF735F902000B0020002900C2
:10304000FFF7FFF802000B0006000F00FFF729F959
:10305000320004000D003B0030003900FFF7FAF8A1
:10306000002210901191544B20002900FFF7FBF82B
:103070000022524BFFF7EEF802000B00200029005F
:10308000FFF7F1F800224E4BFFF7E4F802000B00C7
:1030900020002900FFF7E7F80D008021040032002E
:1030A0003B000020C905FFF7CCF802000B00200010
:1030B0002900FFF7CFF802000B0010981199FFF7D5
:1030C000D2F80022314BFFF7C5F83E4B0F9C9C46CF
:1030D000644400222305FFF7E4F805000E00020017
:1030E0000B000A980999FFF71FF900280AD00D9BD9
:1030F0002800013B31000D930022304BFFF7B3F85D
:1031000005000E00C6270D992B0063318F42BF4189
:1031100028997F420437090500D495E6334300D14E
:1031200082E6099C284A2100284B0A98FFF70AF9F1
:10313000002808D000222100254B0A98FFF7F4F858
:10314000002800D070E6269B002B00D17CE60E9B69
:103150005A1E9341269AD31A269375E60023042714
:103160000D9371E643460A9380231B06534409934B
:1031700042E6002326935FE601FCFFFFFB799F50A8
:103180001344D33FB3C8608B288AC63F0000F03F8A
:103190000000F83F61436F63A787D23F71A37909AD
:1031A0004F930A400000E03F1655B5BBB16B02409B
:1031B000EF39FAFE422EE63F00002C40000024408A
:1031C00000001840FF0300002D431CEBE2361A3FBD
:1031D00080842E41F0B54E46DE4657464546E0B562
:1031E00097B09946209E219F229B8346984607913F
:1031F0000C923B00320030003900FFF7B0F8002895
:1032000000D0A9E1012230003900CA4B5242FFF739
:103210008BF8002800D0E1E0012230003900C64BD5
:103220005242FFF797F8002800D0B7E000223000A4
:103230003900C24BFFF78EF8002800D099E0002239
:1032400030003900BE4BFFF76FF8002800D090E047
:103250000022002330003900FFF766F8002800D074
:10326000B1E000230D93249B5B0501D4062398460F
:1032700008AB9C461722002430234146624404E0F8
:10328000013413550139202C01D00929F8D888467A
:1032900030003900FFF78CF84346DA00A94B0500EF
:1032A0009B181A685B6808920993FFF769F8020097
:1032B0000B0030003900FEF7C4FF089A099BFEF7A7
:1032C000F0FF0A900B91FFF797F88246FFF754F84A
:1032D00002000B000A980B99FEF7B3FF00229A4BED
:1032E0000A900B91FFF736F8002800D1C0E00123C7
:1032F0009C46E2445046FFF73FF802000B00089856
:103300000999FFF717F8002802D000239A460135E3
:103310004346002B6AD008AB17269C4608956644A6
:10332000554614E001235B4243440A2128009A4693
:10333000FEF74CFD013430313719397028000A216D
:10334000FEF744FD092D00D8D0E0D0460500202C22
:10335000E8D10EAB98460323249A1340012B00D1E9
:1033600096E02023249A01930392239A43460292E3
:103370001EE0249B58460493239B009601970393D9
:1033800043460C9A029307994B46FFF7FDFC17B092
:10339000F0BCBB46B246A946A046F0BD249B5B07E5
:1033A0000ED40322694B249901920391239902912F
:1033B000009358464B460C9A0799FFF7A1FBE6E7A6
:1033C0000422634BEFE73B00320000200021FEF7B0
:1033D00038FF012306000F000D9344E7249B03935D
:1033E000239B0293042301935A4BE1E72800FEF745
:1033F000C7FF02000B0030003900FEF722FF524BDE
:10340000002206000F00FEF78FFF0EAB9846002843
:103410000AD10022300039004B4BFEF79BFF0028F9
:1034200002D1EB0700D50135202C94D008AA944690
:103430001723280063440A2101341E19FEF79EFC5D
:103440003031280031700A21FEF798FC051EEBD1BF
:103450000323249A1340012B1BD0202C00D180E79A
:103460000D9B002B35D02D224146631C0A5579E770
:1034700000220A980B99344BFEF756FF002800D023
:1034800046E75346002B51D101239C46E2443FE7D7
:103490002024239B002BE0D00D9B002B03D1249AEA
:1034A0000C33134202D0239B013B2393239BA34263
:1034B000D3D908AB9C46172230236244202C00D17C
:1034C0004FE72399013413558C42C6D0202CF8D1F4
:1034D00047E7249B5B0724D4249A2300120700D4D7
:1034E00040E72022414601330A553BE75746089DF5
:1034F000202C00D12DE7220030214046002F09D09A
:103500000132B154202A00D123E7D3431B191B18E1
:10351000002BF5D10EAB98462E234146541C8B54FC
:1035200082E72B224146631C0A551BE7DB0700D4C8
:10353000EEE6A9E7FFFFEFFFFFFFEF7F65CDCD418F
:1035400065CDCDC1C86300100000E03FD061001020
:10355000D4610010E0610010249B0393239B02932D
:1035600003230193004B23E7DC610010F0B5DE4636
:103570004E4657464546E0B59FB01C00289B9146F5
:103580000993C94AC94B8B4608901A60002900D19B
:1035900018E2002320789A46002800D11AE226007B
:1035A0001D005C460AE02A006F1C4B46089D210066
:1035B000A8473D0001363078002870D02528F2D188
:1035C00010239B46083B9A46043B9846023B002149
:1035D0009C46721C107816000300203BDBB2102BB7
:1035E00003D8B34F9B00FB589F460300303B092B89
:1035F00032D900230A932A2868D0002398462E281F
:103600003ED00300683BDBB2122B1CD8A94A9B00BA
:10361000D3589F46012301321943DBE76346013249
:103620001943D7E7434601321943D3E75B460132DA
:103630001943CFE7534601321943CBE780235B00A0
:103640007078194301360300253BDBB2532BAAD80F
:10365000994A9B00D3589F4600270300B800C01921
:1036600001364000C018337830381A00303A07006D
:10367000092AF3D90A901800002398462E28C0D1B1
:1036800080237078DB0019430300303B721C092B48
:1036900000D8A1E12A2800D1B2E11600B1E7A34683
:1036A000AA462C00D14503D801235B424B449A46DD
:1036B0004B46524659460020089DA84720001FB09F
:1036C000F0BCBB46B246A946A046F0BD099B40CB24
:1036D0000A96002E03DB50780993561C8DE7283894
:1036E000014370420A9009935078561C85E7782868
:1036F00000D1DFE1582800D14CE26F2800D14FE320
:10370000622801D100F030FC10230A009A430B928A
:10371000692801D000F0A9FC0A230C934B0500D5C1
:10372000D0E10B9A802311009B0019408B461A426E
:1037300000D0A1E2802311005B0019408A461A42A2
:1037400000D0B6E313005B0600D5EDE21300099943
:103750001B0601D400F076FC08C91BB2D8171A1852
:10376000424092B209919346DA0F1292002B09D18E
:10377000802310220B99DB000B4091430B91002B0F
:1037800000D0E4E20B9A6123920600D541230EA9F2
:103790001F228C46DBB262440A3B5F461395A34668
:1037A00055460C9CB2460D9316000AE03033DBB24E
:1037B00001357355A74200D2EDE2202D00D1EAE297
:1037C000070021003800FEF701FBCBB20929EDD933
:1037D0000D9A94466344DBB2EAE780239B0070783D
:1037E000194301362FE77078682800D1CDE1802396
:1037F0000136194327E770786C2800D1BFE1802398
:103800005B00194301361EE7462800D19BE10722E1
:10381000099B0491073393430A9A19000392424685
:1038200002920CC908980092019309912A004B4614
:103830002100FFF7CFFC01360500BCE62A006F1C13
:103840004B46089D21002520A84701363D00B2E6E1
:103850008B0700D4ADE1099B2A009A466B1C984661
:10386000534601CB21009A46089F4B46C0B2B84749
:103870000A9B9C466544012B00D886E2089B47467C
:10388000B04626004C4699463A00230001373100E5
:103890002020C847AF42F7D1A146534634004646E0
:1038A0000993013687E6C0466D350010401B0020A5
:1038B000E86100102C62001078620010099B04CBB4
:1038C0009B4643460992002B00D1C6E013789C46E4
:1038D000002B00D1BDE34346013B099A0133D018C8
:1038E0000A9F130001E0834203D05A780133002A73
:1038F000F9D1099A0A979B1A0B9380230A00DB00DF
:103900001A400C92194204D00B9B434501D94346FF
:103910000B9302231A000A400D920B4200D187E15B
:103920006046002800D168E10C9B002B00D10DE11E
:10393000A844C246099B57465B1B9846089BB24663
:103940002A0026004C46994609E023003100551C08
:10395000C8474346585D002800D126E12A00974217
:10396000F3D1A1463D00340056460D9B002B00D0FC
:1039700043E15B46013609931DE6099B1A0008CA1C
:103980009246002B48D0212211438B460EA8844634
:103990001F216144099500220F27A4460D0002E073
:1039A000202A0CD00B003C001C4020003730092C92
:1039B00000D807380132A85419090F2BF0D86446F3
:1039C000099D32E0DC4B2078089300239A460028BA
:1039D00000D0E4E5002465E6434606000A9F98000F
:1039E000C0180132400080191678030030003038CA
:1039F000303B0928F3D93000984616000A9700E6B4
:103A0000099B023604CB9046D2434046D217104061
:103A1000804609933078F4E5102208009043113273
:103A20001043834600224905B0D55B460693082320
:103A3000059343460493102303930023029316AB8C
:103A4000019200932A004B4621000898FFF7A6F840
:103A50005346050001360993ADE513789C46002BCB
:103A600000D1F7E202235B4237E7202302009A43AA
:103A7000472A04D180231B01194302239843452878
:103A800001D1202319430722099B04910733934353
:103A90000A9A19000392424602920CC908980092B1
:103AA000019309912A004B462100FFF76DF9013679
:103AB000050080E510230C930C230A009A430B9217
:103AC0004B0503D501230B9A9A430B92692800D129
:103AD00027E6642800D124E60B9A802311009B007E
:103AE00019408B461A4200D066E1802311005B002A
:103AF00019408A461A4200D039E213005B0600D50D
:103B00003CE113001B0600D4A6E2099B04CB12047F
:103B1000120C934609935B46002B00D09AE10B9A56
:103B20001033110099430B91520500D492E1002308
:103B30009A460B9B06930A9B0593434604930C9B62
:103B4000039300230CE12023194360E6099B0A9AA2
:103B50005B1B98464B4691461F00B2462600089CC8
:103B60002A003B003100A04743460135585D00283C
:103B7000F6D14A463400B94656460A92F5E6C023C5
:103B80009B00B078194302365DE5C023B078194335
:103B9000023658E50C230A009A4314331A43103BAB
:103BA0000B920C934B058DD496E7A14634005646F4
:103BB000DBE60A9A012A00D853E26B1E9F18089B85
:103BC000B04626004C4699462A00230001353100B4
:103BD0002020C847BD42F7D1A14634004646099B84
:103BE0003A0001CB210098467D1C4B46089FC0B28D
:103BF000B847434601360993DDE40B9B0A9AA84671
:103C00009A4200D8B5E694466544ED1A089B4746AB
:103C1000B04626004C4699463A0023000137310051
:103C20002020C847AF42F7D1A14634004646A0E65F
:103C30000B9A0A99531C914200D814E24B199B1A13
:103C40001F00089BB24626004C4699462A002300D6
:103C5000013531002020C847BD42F7D10A9BA1465B
:103C600001330B93099B34001B7856469C466046F3
:103C7000002800D058E67CE60722099B07339343CF
:103C8000013294469C4462465F6809921A68FB17A9
:103C90001093119310981199030053400E930B0049
:103CA0007B400F9394460E9A0F9B121A8B410E92F3
:103CB0000F93FB0F6246129300233A439B463DD07D
:103CC0000B9A6123920600D541230022DBB20EA994
:103CD0000A3B8C4692460D9343461F32624413952D
:103CE000159655460E9E0F9FA24690460C9C149327
:103CF0000CE03032D2B2434601355A55BB4500D1B3
:103D00008AE1202D00D18AE106000F002200002365
:103D100030003900FEF798F8D2B2092AE9D90D9B94
:103D20009C466244D2B2E6E7FF23099904C91340D6
:103D30001A00099117E5C046FD2A00100B9A1033AE
:103D4000110099430B915205BAD500239A460B9B5B
:103D500006930A9B0593434604930C9B0393129B83
:103D600002935346019316AB2A00009321004B4661
:103D70000898FEF713FF013605001CE4FF22099B9B
:103D800002CB11408B460993C5E65346454609933D
:103D90000136FFF710FC56465C46AA46139DD6E74F
:103DA00008230C930B910B99642800D084E60B9B9D
:103DB0005B0500D586E6B4E40722099B07339343ED
:103DC000013294469C44624609921A685B6810006E
:103DD0009B4613005A46134307D10B9A1033110028
:103DE00099430B91520500D5A1E60B9A61239206E7
:103DF00000D541230022DBB20EA90A3B8C46924635
:103E00000D9343461F3262445F461295A3465546C2
:103E10000400B24690460C9E13930DE03032D2B2AD
:103E2000434601355A550023BB4200D100E1202D05
:103E300000D100E104000F0032000023200039000F
:103E4000FEF702F8D2B2092AE8D90D9B9C466244DB
:103E5000D2B2E5E70B9A6123920600D54123DBB28B
:103E60000EA90A3B1F228C460D93230062445C4638
:103E70001295170055469B46B2460C9E08E030331B
:103E8000DBB201357B55B4420ED3202D0CD004009B
:103E900031002000FDF79AFFCBB20929EFD90D9A26
:103EA00094466344DBB2ECE756465C46AA46129D54
:103EB0003FE6099B1A0008CAD91713925A184A40BC
:103EC0009246DA0F1292002B08D1802310220B9910
:103ED000DB000B4091430B91002B2BD10B9A6123FC
:103EE000920600D541230EAA1F279446DBB20A3B57
:103EF0000D9567445D460993A3465446B2460C9E11
:103F000008E03033DBB201357B55B4420ED3202DAF
:103F10000CD0040031002000FDF758FFCBB2092976
:103F2000EFD9099A94466344DBB2ECE756465C4607
:103F3000AB460D9D0B9B2A0006930A9B210005931F
:103F4000434604930C9B08980393129B01360293FB
:103F50005B46019316AB00934B46FEF71FFE139B87
:103F600005000993FFF727FB02230C931AE7099B2F
:103F700004CB92461293002A08D1802310220B9979
:103F8000DB000B4091430B91002B2BD10B9A61234B
:103F9000920600D541230EAA1F279446DBB20A3BA6
:103FA0000D9567445D460993A3465446B2460C9E60
:103FB00008E03033DBB201357B55B4420ED3202DFF
:103FC0000CD0040031002000FDF700FFCBB209291E
:103FD000EFD9099A94466344DBB2ECE756465C4657
:103FE000AB460D9D0B9B2A0006930A9B210005936F
:103FF000434604930C9B08980393002302935B466B
:10400000019316AB00934B46FEF7C8FD129B0500CB
:1040100009930136FFF7CFFAB44200D871E6149B3A
:1040200054460E960F97AA469846159E139D8EE607
:10403000A64200D8FBE6139B56469846AA465C4625
:10404000129D76E508C9D8171A1842400991FFF762
:104050008AFB00230B9350E4099B04CB93460993FE
:1040600059E52F00BBE50B9301E6063B0C939AE65E
:1040700000B585B00391012102900093034813001D
:104080004A4202A9FFF772FA05B000BD792D00106F
:1040900010B5094A0300146884B0002C08D001222E
:1040A00000910648524203A9A047012004B010BD68
:1040B00000F09AF90020F9E7401B0020692D00105C
:1040C00000BEFDE710B5FFF7FBFFC04670B5FDF77A
:1040D0007DFD074D074EB54209D20024013E761BF7
:1040E000B60808CD984723000134B342F9D170BD1A
:1040F000C45E0010CC5E0010030010B50800110073
:104100001B68984710BDC046F0B546464F46D64698
:10411000C0B5437D80460E001700002B46D0002A14
:104120003FDD4B1E9946244B0125002400209A4672
:104130000DE04B461B5D0D3B5A425341325DDBB2F5
:104140000A2A0BD02B00013401359F421ADD002CC6
:10415000EFD14346325D1B7D0A2AF3D1002BF1D10A
:10416000A04204DA4346211A1B6830189847434698
:1041700050461B6802219847013428002B00013566
:104180009F42E4DC874204DD4346391A1B6830183D
:104190009847F619013E33780D3B5A425341424647
:1041A0001375E0BCBA46B146A846F0BD03681100DD
:1041B00030009847F5E7C04618640010F0B5C646D1
:1041C0000C000968060000B5802906D04B1C23604E
:1041D0006418267180BCB846F0BD0F4B1D68002DD9
:1041E00016D0231D98460D4F02E02D69002D0FD0EB
:1041F0002B68002BF9D03B68002B01D0AB42F4D1E7
:10420000280041462268FFF77FFF2D69002DEFD17E
:1042100001230021DBE7C046341700203C170020B3
:10422000F0B5DE4657464E464546E0B585B0170028
:104230001C0006000D00FDF76DFA0023314A12182C
:104240004B41002B59DB304908008A4601F0FCFD48
:1042500001906B1C03D1300001F084FD0500002C9F
:1042600026D12A4B98462A4B1C68002C15D0002FCB
:1042700021D1284F02E02469002C0ED02368002BA6
:10428000F9D03B68002B01D0A342F4D120002A00D2
:104290003100C0472469002CF0D1019B002B28D1AC
:1042A000280005B0F0BCBB46B246A946A046F0BD0A
:1042B000194B9846D7E7174B994602ABDF1D0A23E7
:1042C0009B4602E02469002CE7D02368002BF9D03C
:1042D0004B461B68002B01D0A342F3D12A003100CA
:1042E0002000C0475B460122390020003B70C047D8
:1042F000E8E7504601F070FDD2E70122074B524239
:10430000A1E7C04640420F0058100020F9400010BD
:10431000341700203C17002009410010FFFFFF7FE9
:104320000A4A1368002B05D10CE01A001B691032F1
:10433000002B07D09842F8D1002902D103691360FD
:10434000016170470029FCD01060FAE734170020A3
:10435000F0B5CE46474680B583B06B460600DD1DFE
:104360002870FDF7D7F900231A4A12184B41002B89
:104370002BDB19490800884601F066FD174B814682
:104380001C68002C14D0164F02E02469002C0FD0BA
:104390002368002BF9D03B68002B01D0A342F4D155
:1043A000200001222900FFF7AFFE2469002CEFD185
:1043B0004B46002B05D1300003B0C0BCB946B04617
:1043C000F0BD404601F008FDF5E70122054B5242E1
:1043D000CFE7C04640420F0058100020341700209D
:1043E0003C170020FFFFFF7F70B5040001F0BAFC0E
:1043F00001230100050001222000FFF711FF084BF7
:104400001C68002C06D06368002B05D098472469EF
:10441000002CF8D1280070BD2469002CF3D1F9E7F5
:1044200034170020F0B5CE46474680B5A5B004004D
:104430000D00FDF76FF900232A4A12184B41002B9B
:1044400049DB294E300001F0FFFC002307000393F5
:1044500022002B00254803A9FFF70AFE039B804694
:10446000002B14D1224B1C68002C06D06368002B53
:104470000BD098472469002CF8D1002F27D1404653
:1044800025B0C0BCB946B046F0BD2469ECE7184B76
:104490001D689946002D22D0164C02E02D69002D92
:1044A00011D02B68002BF9D02368002B01D09D423E
:1044B000F4D1039B28001A0004A90193FFF724FEFE
:1044C0002D69002DEDD14B4603951C68CCE73000DB
:1044D00001F082FCD3E70122074B5242B1E703957A
:1044E000CBE7C04640420F0058100020BD410010ED
:1044F000341700203C170020FFFFFF7F0FB400B5EA
:1045000083B004A901C90191FFF78CFF03B008BC77
:1045100004B01847F0B50D1E15DD0E4B0D271A68B7
:104520000D4B4519D31859424B410C495B005E5E57
:1045300020210478A64207D093691942FCD10130AA
:104540001460A842F5D1F0BD93691942FCD11760FF
:10455000F2E7C046741B00200080FCBF6C1B0020EB
:1045600030B504000D1E24DD002010211A4B013C43
:104570001A689369194217D1013093691942FCD125
:10458000136823548542F4D1144B1B68002B0AD0C6
:1045900050239363516B183B0B4011498C46624486
:1045A0001360002814D030BD0C4B1B68002BEFD1DA
:1045B000F7E70A4B1B68002B0AD05022064B1B68FA
:1045C0009A63596B183A0A4005498C4663441A604D
:1045D00003204042E7E7C046741B0020FC16002081
:1045E00034100000064B10B51B68002B06D00021CC
:1045F000044A12689163044A1068984710BDC04687
:10460000FC160020741B0020001700200822034B1A
:1046100019688B691A42FCD17047C046741B002090
:1046200070B51B4E1B4B32680500D31858424341EE
:1046300014331C00002D04D0174B1A68002A11D027
:1046400070BD154E3368002BFAD000212000956311
:10465000FCF772FA20001149FCF79EFB104B356005
:104660001D60EDE71D600E4B200019600B49FCF743
:1046700075FA01212000FCF75FFA502233689A6333
:10468000596B183A0A4007498C4663441A60D7E7C9
:10469000741B00200080FCBFFC160020E5450010C4
:1046A000001700203410000070B50C4E0D001C00E7
:1046B0003060002A03DB02211000FCF739F9002CDE
:1046C00003DB02212000FCF733F929003068FDF7F5
:1046D00055F801210248FFF723FE70BD741B00202E
:1046E00020100020F8B500F045F90C23194DFF22E9
:1046F000AB6705201849FCF75BFA184C40220021F3
:104700002000FEF7EFF94027002301262121144A5B
:1047100066702783A260136063545F3161844539FA
:104720006354104A10496360E2602787A1620B60FE
:104730006362E26201F060FB80239B052E64EB6400
:1047400090230A4A0120EA508022094B5202DA647F
:10475000F8BDC0460000115069030020401700203A
:1047600084001050000110508000105010D0010043
:104770000020115010B501210520FCF7DDF910BD16
:1047800010B500220021024800F014F910BDC04607
:1047900060170020044B1970002904D08021902359
:1047A000024A8902D1507047791B00200020115025
:1047B0000B785B0602D14B78052B00D070478A78C6
:1047C000014B1A60FAE7C04600001150F0B5C6462A
:1047D000C87800B58007830F1800012B61D08F784F
:1047E0000C794B797F211B02394023434E00FC0991
:1047F000334D32195201AA1897700127674057703C
:1048000000275B055B0DD7701383D076B846CA00CE
:10481000012C32D02B4FBC468F016244BC46AC44C5
:104820006746BA6047461760002932D0264AC90059
:1048300090466246414451603F223F3393430228F1
:1048400038D0224937190A687F01D3180B602049F4
:10485000EF19FA608B422FD8341964012D19EB7EC1
:104860001C499B064A401343802201201206134331
:104870006A68136080BCB846F0BD174FBC468F0114
:104880006244BC46AC446746BA624746176000299A
:1048900009D1002364012D196B60104B0120EB60DE
:1048A000E8E70020E6E70B4AC9009046624641442B
:1048B0005162C1E75B00C4E7FDF782F9FA68CBE714
:1048C000401700208400105004001050441B0020AA
:1048D000FF0F1050000010508000105000011050C9
:1048E00010B501F089FA10BD10B57F200C002040F2
:1048F0004000E409110000191A00034B4001C018E0
:1049000000F058F8012010BD401700207F2213004E
:1049100010B50B400A420BD0C9098022580040183C
:104920000649400140181201002101F0A5FA10BD0E
:1049300002220348C909521A8266EEE74017002096
:10494000002011507F22100010B508400A4200D10B
:1049500010BD0023C909400040180449400108184F
:1049600000220349C37001F087FAF1E740170020E5
:10497000FFF7FFFF80220A4B520410B51A60094B63
:1049800009491A6010000B689843FBD1802200216E
:1049900052010648FEF7A6F80922054B5A6710BDDA
:1049A00000E0004000F0004008C00040000010504F
:1049B0000000115070B5837E04000D001600002B1E
:1049C00017D10023E38201332000A682A37625615C
:1049D00001F032FA002804D080219023084A89028D
:1049E000D150200001F018FA002805D001232377C8
:1049F00070BD01F039FAE4E7200001F02DFAF7E785
:104A000000201150002070477047C0467047C046D4
:104A1000002070470020704700207047024B5878F4
:104A2000431E9841C0B27047E0140020024B187832
:104A30004007C00F7047C046E0140020F0B546465E
:104A40004F46D646C0B52E4B814698461B780E0081
:104A50000124FF2B40D100293DD0002154222948B8
:104A6000FEF740F80022284C284B20001A70FCF773
:104A700003FB274B1C60274C20001430FCF70AFB7B
:104A8000200001F0EBF8244B244D1C60244B002B3C
:104A900004D0280000E000BF224B1860224A002406
:104AA00092462B781F4F0EE03A68630194466344A8
:104AB000002B10D05B68002B0DD0984701342B7869
:104AC000E4B2A3420ED39C42EED3E31A5B015344FB
:104AD0005B68002BF1D100242000E0BCBA46B1464F
:104AE000A846F0BD43464A46310048461A70FFF7D3
:104AF000F9FD041EEFD04846FFF73CFEECE7C04648
:104B000054100020E0140020D81400207A1B00204C
:104B1000341500203810002038150020781B0020A4
:104B200000000000FC13002020650010F0B5DE46F8
:104B300057464E464546E0B5BC4B87B01B78FF2B29
:104B400000D124E1BA4D03AC2E687269EFF31081F5
:104B500072B61368002BFCD0BFF35F8FB1613000D9
:104B6000210000F0E7FF7269B369BFF35F8F002196
:104B7000116083F31088002800D108E16378082BC6
:104B8000E2D8AC4A9B00D3589F466368002BDBD029
:104B9000A0689847D8E77F232179A74E0B4058009B
:104BA000CA093618B6183200012730321079B843D6
:104BB000107110790337B8431071002B00D1EFE06A
:104BC0009E4A337D1278934200D3DEE09C4A5B011B
:104BD0001268D318002B00D1D9E09E696279207841
:104BE000A368B047B0E7974A1378002B00D1CEE016
:104BF0001378013BDBB213701378002BA4D1012290
:104C00008D4B01201B788C4913438B4A8A4E1370BD
:104C10003423D25C8243CA54CA5C04218A43F254CE
:104C20000133F25C8243F254F25C00208A43F25476
:104C3000267800F065FC602223791A40602A0DD0A6
:104C4000402A00D1B4E0DB06DB0E012B00D101E1EC
:104C5000022B00D1C6E0002B00D1B5E02078002166
:104C6000FFF754FE80212078FFF750FE6CE7724E6C
:104C70003378DB0700D467E7FBF774FD64E76E4B1E
:104C8000DB78DB0700D45FE76068FFF7BFFE5BE718
:104C9000694E3378DB0700D456E730780007C00F41
:104CA000FBF758FD50E7684A644F23789246644A00
:104CB000984691463A003B780026474690460FE0DA
:104CC0004A461268730194466344002B66D0DB6841
:104CD00038009847434601361B78F6B2B3423ED3BC
:104CE000B342EDD8F31A5B015344F0E7564A534FF1
:104CF00023789246524A984691463A003B780026DD
:104D0000474690460FE04A46126873019446634452
:104D1000002B1FD0DB6838009847434601361B78CC
:104D2000F6B2B34205D39E42EDD3F31A5B0153446E
:104D3000F0E7414E542200213000FDF7D3FE10224F
:104D4000FF21301DFDF7CEFE30002022FF21143060
:104D5000FDF7C8FE00F0CAFBFBF7F6FCF4E6364EA2
:104D6000542200213000FDF7BDFE1022FF21301D2E
:104D7000FDF7B8FE30002022FF211430FDF7B2FE0F
:104D800000F0B4FB2379B370DEE693420ED007B097
:104D9000F0BCBB46B246A946A046F0BD264EEFE7A2
:104DA00062792078A36800F0BFFBCDE6264B14E7BC
:104DB000264800F0A5FB0121300004AAFFF722FEDF
:104DC000002800D0C0E649E7202A00D143E1002AAC
:104DD00000D043E76379092B00D93FE71C4A9B00C9
:104DE000D3589F467023217A0B4200D036E77F27A5
:104DF000CB0999460F40104B7F001048DB194B44FC
:104E00001B7D0078834256D300D040E10E4B98467C
:104E1000002A00D140E14346586900F071FB434647
:104E2000012130005B6904AA9847C9E754100020AB
:104E30003815002078640010E0140020781B002052
:104E4000FC1300207A1B002020650010054A00108A
:104E50009C640010237A0F2B00D9FFE6D74A9446B2
:104E6000D74A63441B791278934231D300D0F5E6D8
:104E7000D44F786900F044FB012130007B6904AA1B
:104E80009847002800D05FE66022170023791F4072
:104E90001A4200D0E2E663790A3B012B00D9DDE635
:104EA00000F02EFB63790A2B00D14FE1300004A9FA
:104EB00000F0A6FA48E6C4485B01006880469844C2
:104EC000002A00D1E8E04346002B00D1C6E6A2E765
:104ED000BD4A5B011768FF18002F00D1BEE6C8E786
:104EE000A3799846B54B5B789845DFD0B34B5B7898
:104EF000002B00D04EE14246B04B5A70002A00D140
:104F000045E140460138C0B2FBF766FC002800D1FD
:104F100039E14378022B00D035E10121C279070045
:104F2000931152110B400A4012015B011343A34A33
:104F30002F311278B3468A431343A04A09371370BE
:104F4000C37882781B021343C31801939E4B994682
:104F5000019BBB4200D854E101227B7890460B2B89
:104F600004D1FB7898463B78FF187B78042B00D05F
:104F700009E1019B0026DB1B9BB29A46904B1B78F4
:104F800019E04A461268730194466344002B00D12D
:104F9000F9E05246390058461B699847082803D95A
:104FA0005346834200D3DAE0854B01361B78F6B2D4
:104FB000B34200D2E7E0B342E3D8824AF31A944600
:104FC0005B016344E5E77D4B02AA5B780232137014
:104FD0003000012304A900F02BFAB5E5E088030AAC
:104FE000C0B20F2B00D939E678499A008A58974603
:104FF00004A800F08BFA3000A179FFF7C1FB022270
:105000006E4B1B7813436D4A13709DE5E388012BAB
:1050100000D023E60822694B1B789343674A13703C
:1050200044E70220654B197802AB9A1C8B0689086D
:10503000DB0F01400B4313803000022304A900F072
:10504000F7F981E5E388012B00D007E608225B4BE6
:105050001B781343E2E7237A0F2B00D9FEE5574A6A
:10506000944663441F79564B1B789F422BD2564A75
:105070007B011768FF18002F00D1EFE5786900F079
:105080003FFA012130007B6904AA984798E6002A7C
:1050900000D0E3E50023984663799A4602239B46B5
:1050A00053465A469343012B12D05346002B00D04F
:1050B000D4E5424B02AADB194B4430331B79023250
:1050C0009B07DB0FB7E79F4200D0C7E53D4FD5E711
:1050D000E388002B12D15346012B26D03C4B187885
:1050E000FFF714FC0221354BDB194B4430331A799E
:1050F0000A4301211A711A790A431A714346002B97
:1051000000D121E5586900F0FBF9434604AA5B6928
:10511000012130009847002000F0F2F93523274A9A
:10512000D35CDB0700D50FE5C0E6294B1878FFF705
:1051300009FC5946214BDB194B4430331A798A4319
:1051400051461A711A798A431A71D7E702AB9A1C31
:105150003000012304A9177000F06AF9F4E4434613
:105160008246002B00D186E0BA78D318DBB205E086
:105170000132D2B20E71934200D17CE00F498918FE
:105180000879FF28F4D000230C4A537066E5FBF73A
:10519000DBFA8BE630000021FFF7FCFA3000FFF766
:1051A0009FFB00229146084A044B93464A469B784F
:1051B000034F9A46B1463B7816001AE0E0140020EF
:1051C000781B002020650010FC130020C464001030
:1051D000541000205A461268730194466344002B11
:1051E0006BD0DB684846984701363B78F6B2B3424D
:1051F0004ED39E42EED3324AF31A94465B01634487
:10520000EFE75E46FBF798FA50E6FFF703FC021E55
:1052100000D123E53000137804A900F009F9CFE5A7
:105220002189FBF7DDFA021EF4D117E5022B18D015
:10523000FFF7F2FB021E00D110E5D37891781B0234
:105240000B43300004A900F0F3F8B9E5FBF7BCFA12
:10525000021E00D102E51223300004A900F0E8F894
:10526000AEE5FBF7B9FA021EE7D1F7E4FFF7D0FB92
:10527000021EE2D1F2E4330039005246114800F038
:105280003FFC114B57441B78B34200D360E67AE7EA
:10529000542200210D48FDF725FC0C4B1022FF2164
:1052A000181DFDF71FFC2022FF2106484E46FDF782
:1052B00019FC5246054B9A701DE64E46F9E7C0466A
:1052C00020650010F4140020781B0020E01400205A
:1052D000F8B557464E46DE4645460C00E0B516008A
:1052E0001F00002A3DD0702398461F4B00259B4687
:1052F0001E4B9A461BE05B461B780022994653469C
:105300002000997800F0A6FB00281CD02100484618
:10531000FFF75CFA002816D0A378DA09012A19D021
:105320000A9A013513702378E418B54219DA6378C4
:10533000052B08D1E3789B079B0FBB4203D1424664
:10534000A3781A42D7D00020F0BCBB46B246A9468B
:10535000A046F8BD0B9A013513702378E418B542C6
:10536000E5DB0120F0E7C04654100020E0140020E7
:10537000074B080019687F2310B50340C0095B0084
:1053800034301818034B181800F03CFB10BDC04611
:1053900034150020E01400207F2070B508400F4C29
:1053A0004000CD0924186419303425790020ED0718
:1053B00000D570BD0126257909483543007825714F
:1053C000FFF792FA0028F4D1012223799343237145
:1053D0002379033293432371EBE7C046E0140020A6
:1053E000541000207F22CB090A400449520089183A
:1053F000C91830310879C007C00F7047E014002089
:1054000070B50A4E0500300008220C00FDF770FB55
:1054100000237F21F3602278B36091425B41280032
:10542000D90100220023FFF7B7FF70BD4014002010
:10543000F8B5CE46474691462A4E80B50822070069
:1054400030000D009846FDF753FB4B46B360002338
:10545000F381EC79A97924020C43231C444500D93B
:1054600043469AB29046B381002C13D0002A1FD035
:105470004B46002B34D0131C402A1FD89BB29846B1
:1054800033787F2B20D80021174A43463800FFF796
:1054900083FF09E07F222B7838009A426441002381
:1054A0000022E101FFF778FFC0BCB946B046F8BD65
:1054B00033787F2B11D980210022E6E740239BB26D
:1054C000984633787F2BDED9074C42464946200068
:1054D000FDF70EFB80212200D7E700210022D4E750
:1054E0000020E1E7401400200014002010B5142231
:1054F00000210248FDF7F6FA10BDC0464014002016
:10550000014B18617047C0464014002010B5054C8F
:10551000010008222000FDF7EBFA0023A360E360FE
:1055200010BDC04640140020F8B5394C1D0023784A
:105530000600DA09C9098A4210D00020002D00D0E7
:10554000F8BD21003000FFF733F92369002B42D06A
:1055500022000321300098470120F1E77F2B06D875
:10556000A068002839D02A002A49FDF7C1FAA368AB
:10557000E28959195219E38892B2E281A1609342FB
:1055800014D03F2D12D9A589A81A071C80B2402833
:105590002FD82378BFB27F2B2DD80021AA4235D037
:1055A0001C4A3B003000FFF7F7FEC9E72369002BD8
:1055B00005D0220002213000984700280FD07F221A
:1055C0000021237830009A42494100230022C9017A
:1055D000FFF7E2FEB4E70120B2E70020B0E70021C8
:1055E0003000FFF793F930008021FFF78FF9012099
:1055F000A6E74027CDE7AA4207D0064C3A00200094
:10560000FDF776FA80212200CBE780210022C8E74F
:1056100040140020001400207047C046012070474D
:105620007047C046430018180C4B800010B518187E
:105630004478FFF7F3F9002801D1002010BDFFF7EF
:10564000F5F90028F9D1002CF7D021000020FFF750
:10565000C9FE01235840C0B2F0E7C046C81400207C
:10566000F0B583B06D460E00190000232A700400C7
:1056700006226B70002926D0A81CFDF739FA002CF1
:1056800002D0002003B0F0BD114F00207978FFF761
:105690006FFE0028F5D00F4C002E0ED020000822FF
:1056A000290026741130FDF723FA092322007978A6
:1056B00010320020FFF770FEE4E72300103306CD20
:1056C00006C30823F2E70021A81CFDF70BFAD6E772
:1056D000C81400209814002010B50C2200210248A4
:1056E000FDF700FA10BDC046C81400200120704725
:1056F00010B50C2200210248FDF7F4F910BDC04698
:10570000C8140020F0B54B7906000D0083B0032BC0
:105710000AD10879C400241A1234A4B2944203D8DE
:10572000194F7B78002B03D00024200003B0F0BD7C
:10573000097869184B78212BF6D1B9600B780200F3
:10574000C9187B1C0193BB1C009330000323FFF797
:10575000BFFD0028E8D0AB79012B01D1EB79FB70BC
:105760000123BB71AB78BA683B70137AD1791B0205
:105770000B43B978BB800029D7D0044A10233000EE
:105780002032FFF709FED0E7C8140020981400204B
:105790001F23F0B514001278060083B01340012BCC
:1057A00018D1614F20793B78984213D160231800BB
:1057B0001040134208D020280CD163780B2B09D855
:1057C0005A4A9B00D3589F460125012903D163788B
:1057D000062B03D00025280003B0F0BDE378212B71
:1057E00000D183E0222BF5D10020FAF7F1FF210050
:1057F0000200BB883000FFF71BFEECE7012912D046
:1058000001250329E7D1A1780020B971FFF704FF32
:10581000E1E701250129DED1E1780020F971FFF7E8
:10582000FDFE0028D6D021003000FFF7E9FD01255C
:10583000D1E7012965D001250329CCD1E079A379ED
:1058400000021843E278A178041C102800D9102423
:10585000374BA4B2002907D0012805D9187888420F
:1058600002D1013CA4B2013300200094FAF78EFF6C
:105870000125B0E701250129ADD101232100300028
:10588000BA1DFFF7D5FDA6E701250129A3D1012304
:1058900021003000FA1DFFF7CBFD9CE7012501290F
:1058A00099D1E379A0791B020343E278A178181C0F
:1058B000102B00D9102080B2002930D0012B2ED916
:1058C00001251B4F0138397080B27B1C00900020ED
:1058D000FAF75AFF2D18ABB2002B00D17AE73A0045
:1058E00021003000FFF7A4FD012574E7BA68002A03
:1058F00000D16FE7210030001378FFF799FD050014
:1059000069E7E379A2791B021343102B00D961E701
:1059100021003000064AFFF78BFD01255BE7044FAD
:1059200000253B00D2E7C046C814002040650010A7
:105930009814002070B51F4D0400A87882B08842EA
:1059400018D16978814219D0002A21D11A4E9BB210
:105950003200203200930021130000200222FAF7C7
:1059600015FF320010232000A9782032FFF714FD24
:1059700002B070BD6C7800208C42F9D1002A10D1A1
:105980000D4900209AB21031FAF7FCFE0120EFE732
:10599000094E0221320000209BB22032FFF740FE68
:1059A000DFE7054A002001219BB21032FFF738FEE5
:1059B0000120DDE7C81400209814002000B5030082
:1059C00083B0002910D00020012B07D80A78002AC4
:1059D00004D00B48C2540120012A01D003B000BDFD
:1059E0001800FFF72BF8F9E7012301A900200B802D
:1059F000FFF724F80028F1D00122014B1A70EDE7DF
:105A0000D4140020037870B5DB0704000E00DD0F0E
:105A1000002B17D103785B0701D5280070BD012149
:105A20003000494200F000FA2378DB07DD0F002B3D
:105A30000AD123785B0708D4042223780125134375
:105A4000237002E00025E8E70025300000F0C4F9EB
:105A5000E3E7C04630B5437905791B022B435B056C
:105A60005C0DC3789B079B0F022B05D0032B22D024
:105A70000020012B15D030BD022929D0002A03D0E7
:105A800080239B009C422BD02300194A083B1342E1
:105A900024D02000174C2038204043425841C0B247
:105AA000E9E702394B425941134B9C466144A142FC
:105AB0004041C0B2DFE702394B425941F023002098
:105AC00049429B0019404031A1424041C0B2D2E757
:105AD0000A4BE3185A425341D8B2CCE70120CAE737
